:100000000C9434000C9451000C9451000C94510049
:100010000C9451000C9451000C9451000C9451001C
:100020000C9451000C9451000C9451000C9451000C
:100030000C9451000C9451000C9451000C945100FC
:100040000C9451000C9451000C9468010C945100D4
:100050000C9451000C9451000C9451000C945100DC
:100060000C9451000C94510011241FBECFEFD8E026
:10007000DEBFCDBF13E0A0E0B1E0E2E8F5E002C0F2
:1000800005900D92AC33B107D9F713E0ACE3B3E0C0
:1000900001C01D92A536B107E1F70E9437010C940B
:1000A000BF020C940000282F662311F02C9A01C087
:1000B0002C982D9884B18F6084B995B1907F822F50
:1000C00082958F70892B85B92E9A00C02E982F703B
:1000D000292B25B92E9A00C02E989F6095B90895B6
:1000E000882311F02C9A01C02C982D9A84B1807F1E
:1000F00084B92E9A00C093B12E9800C02E9A00C0E9
:1001000083B18F709295907F2E98892B089580E00F
:100110000E94700087FDFBCF00C080E00E9470004D
:1001200008951F93182F0E948700812F60E00E947E
:1001300053001F9108951F93182F0E948700812F4D
:1001400061E00E9453001F910895662311F48058C6
:1001500009C0613011F4805405C0623011F48C562E
:1001600001C08C520E94910008950E94870090E087
:10017000089581E00E949100089582E00E9491001C
:1001800008951F93182F0E948700982F1A3099F412
:10019000843110F480E40BC08054843110F484E185
:1001A00006C094519C3210F080E001C084E5805874
:1001B0000E94910004C0812F61E00E9453001F91B2
:1001C0000895CF93DF93EC0102C00E94C100899192
:1001D0008823D9F7DF91CF910895CF93DF93EC0176
:1001E00002C00E94C100FE01219684918823C9F7B4
:1001F000DF91CF9108951F93182F84B18F6784B931
:1002000080EA9FE00197F1F7299A289A2E9A00C078
:100210002E9880EE94E00197F1F72E9A00C02E9868
:1002200080E190E0FC013197F1F72E9A00C02E9802
:10023000FC013197F1F728982E9A00C02E9801976B
:10024000F1F788E20E94910088E00E9491000E94EC
:10025000B90086E00E949100812F0E9491001F91B9
:10026000089528EA31E6C9010197F1F7FCCF86E34A
:1002700093E06BE972E00E941002FFCF0F931F938F
:100280008B010E94B90080E091E00E94E100C8016A
:100290000E94E1008CE49DE129E130E0F901319711
:1002A000F1F70197D9F71F910F9108951092C000AF
:1002B00088E18093C10086E08093C2001092C5005F
:1002C00085E08093C4007894089580E090E00895DC
:1002D0001F920F920FB60F9211248F938091C60038
:1002E00080933C038F910F900FBE0F901F90189535
:1002F000FC0181918823E9F708956F927F928F9294
:100300009F92AF92BF92CF92DF92EF92FF920F93A4
:100310001F93CF93DF937C01FC01C080D18000E06C
:10032000AA2489E1682E712C49C0EA2DF0E0E21779
:10033000F3070CF062C04F01840E951EA394869CB7
:10034000F001879CF00D969CF00D1124EC0DFD1D25
:10035000858181FDEACFF7016381600F82810E9470
:10036000A500F701B580BA94F601218130E08A2D0D
:1003700090E001972817390711F48AE201C080E262
:100380000E94C100869CE001879CD00D969CD00DF8
:1003900011242896CC0DDD1D10E006C0899188231C
:1003A00031F00E94C1001F5F1B15C0F306C080E240
:1003B0000E94C1001F5F1B15D0F30F5FF7018481FE
:1003C0000817D8F4F6018081482F50E08281282F49
:1003D00030E0241B350BA9CFF7016381600F8281C8
:1003E0000E94A50010E004C080E20E94C1001F5FCF
:1003F000F70185811817C0F30F5FF7018481081793
:1004000058F3DF91CF911F910F91FF90EF90DF9004
:10041000CF90BF90AF909F908F907F906F900895F6
:10042000FC01DB018081918114969C938E9313973C
:1004300071836083CF010E947D010895DC01ED91FD
:10044000FC91119783819481009731F011969C93D0
:100450008E93CD010E947D010895CF93DF93EC012F
:10046000A881B98111962C91119749E150E022237E
:10047000C9F02150822F90E0849FF001859FF00DFC
:10048000949FF00D1124EA0FFB1F858181FDEFCFB2
:1004900011962C9311978C91281708F42C93CE0168
:1004A0000E947D01DF91CF910895CF93DF93EC01FE
:1004B000A881B98111962C91119712969C9112974F
:1004C00069E170E02F5F2917F0F4422F50E0469F5A
:1004D000F001479FF00D569FF00D1124EA0FFB1F0E
:1004E000858181FDEFCF11962C9311973C818C91E2
:1004F00090E0830F911D4817590714F0231B2C938C
:10050000CE010E947D01DF91CF9108950F931F933B
:10051000CF93DF938C01FC01C081D181898190E070
:1005200029E130E0829FA001839F500D929F500DE2
:100530001124DE01A40FB51F15968C91159780FF2D
:1005400008C05C966D917C915D97C8010E94100275
:100550000EC0CA010896C80FD91F1696ED91FC91DE
:1005600017975C968D919C915D97BE010995C80186
:100570000E947D01DF91CF911F910F910895F89412
:02058000FFCFAB
:1005820053656C65637465643A20000000030000E3
:10059200000000467265712028487A290000000098
:1005A2000000000000000000000031014672657189
:1005B2002028532900000000000000000000000075
:1005C20000000000030B010031014F666673657481
:1005D2000000000000000000000000000000000019
:1005E200003101566D61780000000000000000003B
:1005F200000000000000000000003101566D696E2D
:1006020000000000000000000000000000000000E8
:100612000000003101567070000000000000000070
:1006220000000000000000000000000031015672CE
:100632006D730000000000000000000000000000D8
:1006420000000000000003420100310153696E65A1
:100652000000000000000000000000000000000098
:10066200000000310152616D7000000000000000C6
:100672000000000000000000000000003101537182
:1006820075617265000000000000000000000000BB
:1006920000000000000003C40100310150686173D2
:1006A20065000000000000000000000000000000E3
:1006B200000000310144757479204379636C650050
:1006C2000000000000000000000000000003C40160
:1006D200003101416D706C69747564650000000041
:1006E20000000000000000000000310154696D6547
:1006F20000000000000000000000000000000000F8
:10070200000000310141626F7574000000000000BA
:1007120000000000000000000000000000050000D2
:100722000100005374617475730000000000000042
:10073200000000000000004B0201000046726571DB
:1007420075656E6379000000000000000000000083
:100752000B01010000416D706C69747564650000E5
:10076200000000000000000000420101000057618B
:10077200766520536861706500000000000000008B
:100782000000C40101000053796E63000000000004
:1007920000000000000000000000001402003E0102
:1007A200736F6D657468696E670000000000000079
:0C07B20000000000000000000000041225
:00000001FF
