:100000000C9434000C9451000C9451000C94510049
:100010000C9451000C9451000C9451000C9451001C
:100020000C9451000C9451000C9451000C9451000C
:100030000C9451000C9451000C9451000C945100FC
:100040000C9451000C9451000C9451000C945100EC
:100050000C9451000C9451000C9451000C945100DC
:100060000C9451000C94510011241FBECFEFD8E026
:10007000DEBFCDBF13E0A0E0B1E0ECE5F5E102C0EA
:1000800005900D92A434B107D9F713E0A4E4B3E0CE
:1000900001C01D92AD35B107E1F70E94CB080C9469
:1000A000AC0A0C940000EF92FF920F931F937B0118
:1000B0008C0120E030E040E05FE40E94CF03882321
:1000C0008CF0C801B70120E030E040E05FE40E941E
:1000D000CB010E94FF039B01AC0120503040404007
:1000E000504806C0C801B7010E94FF039B01AC0144
:1000F000B901CA011F910F91FF90EF900895A0E000
:10010000B0E0E5E8F0E00C94750ADC012B01FA019F
:100110009C91923008F439C1EB018881823008F457
:1001200033C1943069F4843009F02FC111969C9149
:1001300011978981981709F428C1ABE0B1E025C176
:10014000843009F421C18230A9F4923009F01DC134
:100150009A01AD0188E0EA010990AE01E901099236
:100160009E018150C1F7E201898111969C918923FA
:10017000818308C1923009F407C112962D903C90FA
:100180001397EB018A819B811496AD90BD90CD9021
:10019000DC901797EC80FD800E811F819101281B58
:1001A000390BB90137FF04C066277727621B730B31
:1001B000603271050CF061C0121613066CF5370140
:1001C0004801062E04C096948794779467940A9405
:1001D000D2F721E030E040E050E004C0220F331FAE
:1001E000441F551F6A95D2F721503040404050407F
:1001F0002E213F2140235123211531054105510571
:1002000021F021E030E040E050E079018A01E62869
:10021000F728082919293CC0232BD1F1260E371EB7
:1002200035014601062E04C096948794779467940E
:100230000A94D2F721E030E040E050E004C0220F01
:10024000331F441F551F6A95D2F72150304040405C
:1002500050402A213B214C215D21211531054105CA
:10026000510521F021E030E040E050E059016A0101
:10027000A628B728C828D9280BC0821593052CF0CA
:100280001C01AA24BB24650103C0EE24FF248701BE
:1002900011969C91D20111968C91981709F445C042
:1002A000992339F0A80197012A193B094C095D09E6
:1002B00006C0A60195012E193F09400B510B57FDB1
:1002C00008C0118233822282248335834683578378
:1002D0001DC081E081833382228288279927DC0137
:1002E000821B930BA40BB50B84839583A683B783E2
:1002F0000DC0220F331F441F551F248335834683AF
:1003000057838281938101979383828324813581EE
:1003100046815781DA01C9010197A109B1098F5FAF
:100320009F4FAF4FBF4328F30BC09183338222828C
:10033000EA0CFB1C0C1D1D1DE482F582068317834D
:1003400083E08083248135814681578157FF1AC01D
:10035000C901AA2797FDA095BA2F81709070A0704F
:10036000B0705695479537952795822B932BA42BE4
:10037000B52B84839583A683B7838281938101966D
:1003800093838283DF0101C0D201CD01CDB7DEB7F7
:10039000E2E10C94910AA0E2B0E0E1EDF1E00C940E
:1003A000810A69837A838B839C832D833E834F8369
:1003B0005887E9E0EE2EF12CEC0EFD1ECE010196E1
:1003C000B7010E9428058E010F5E1F4FCE010596D2
:1003D000B8010E9428058A8991E089278A8BC70184
:1003E000B801AE01475E5F4F0E947F000E94530438
:1003F000A096E6E00C949D0AA0E2B0E0E2E0F2E014
:100400000C94810A69837A838B839C832D833E833A
:100410004F835887F9E0EF2EF12CEC0EFD1ECE0134
:100420000196B7010E9428058E010F5E1F4FCE0175
:100430000596B8010E942805C701B801AE01475EC4
:100440005F4F0E947F000E945304A096E6E00C9448
:100450009D0AA0E2B0E0EFE2F2E00C94750A698335
:100460007A838B839C832D833E834F835887CE0171
:100470000196BE01675F7F4F0E942805CE01059659
:10048000BE016F5E7F4F0E9428059985923088F0EB
:1004900089898230C8F0943019F4823051F404C054
:1004A000843029F4923081F48BE091E0C6C0923020
:1004B00049F420E09A858A89981321E02A87CE01A1
:1004C0000996BBC0823049F420E09A858A89981346
:1004D00021E02A8BCE014196B0C02D843E844F840A
:1004E00058886D887E888F88988CEE24FF24870139
:1004F000AA24BB24650140E050E060E070E0E0E049
:10050000F0E0C10181709070892BE9F0E60CF71CD6
:10051000081D191D9A01AB012A0D3B1D4C1D5D1DC7
:1005200080E090E0A0E0B0E0E614F70408051905CB
:1005300020F481E090E0A0E0B0E0BA01A901480F0A
:10054000591F6A1F7B1FAA0CBB1CCC1CDD1C97FE0D
:1005500008C081E090E0A0E0B0E0A82AB92ACA2A49
:10056000DB2A3196E032F10549F0660C771C881CD5
:10057000991C5694479437942794C3CFFA85EA89F7
:100580002B893C898B859C85280F391F2E5F3F4F17
:1005900017C0CA0181709070892B61F0169507957C
:1005A000F794E79480E090E0A0E0B0E8E82AF92A28
:1005B0000A2B1B2B76956795579547952F5F3F4FD5
:1005C00077FDE7CF0CC0440F551F661F771F17FD3F
:1005D0004160EE0CFF1C001F111F215030404030C5
:1005E00090E0590790E0690790E4790760F32B8F5A
:1005F0003C8FDB01CA018F779070A070B07080349F
:100600009105A105B10561F447FD0AC0E114F104AB
:100610000105110529F0405C5F4F6F4F7F4F407817
:100620001A8EFE1711F081E08A8F4D8F5E8F6F8FCB
:1006300078A383E0898FCE0149960E945304A09647
:10064000E2E10C94910AA8E1B0E0E9E2F3E00C9455
:100650007D0A69837A838B839C832D833E834F83BA
:100660005887B9E0EB2EF12CEC0EFD1ECE01019661
:10067000B7010E9428058E010F5E1F4FCE0105961F
:10068000B8010E9428052985223008F47EC03989E6
:10069000323010F4B8017CC08A859A8989278A870C
:1006A000243011F0223031F4231709F06EC06BE0D2
:1006B00071E06EC0343039F41D861E861F86188A9C
:1006C0001C861B8604C0323021F484E08987B70180
:1006D0005FC02B853C858B899C89281B390B3C8707
:1006E0002B87ED84FE840F851889AD88BE88CF885E
:1006F000D88CEA14FB040C051D0540F4EE0CFF1C1D
:10070000001F111F215030403C872B8720E030E034
:1007100040E050E080E090E0A0E0B0E460E070E015
:10072000EA14FB040C051D0540F0282B392B4A2B3D
:100730005B2BEA18FB080C091D09B695A795979540
:100740008795EE0CFF1C001F111F6F5F7F4F6F31ED
:10075000710531F7DA01C9018F779070A070B07020
:1007600080349105A105B10561F427FD0AC0E114AB
:10077000F1040105110529F0205C3F4F4F4F5F4FF9
:1007800020782D873E874F87588BBE01675F7F4F4C
:10079000CB010E9453046896EAE00C94990AA8E100
:1007A000B0E0E5EDF3E00C94810A69837A838B83F2
:1007B0009C832D833E834F83588789E0E82EF12C5C
:1007C000EC0EFD1ECE010196B7010E9428058E0198
:1007D0000F5E1F4FCE010596B8010E94280589853E
:1007E000823040F08989823028F0C701B8010E9428
:1007F000A00501C08FEF6896E6E00C949D0AACE07E
:10080000B0E0E5E0F4E00C94850A69837A838B8399
:100810009C83CE010196BE016B5F7F4F0E9428052D
:100820008D81823061F1823050F1843021F48E81EB
:10083000882351F12EC02F81388537FD20C06E816D
:100840002F3131051CF06623F9F023C08EE190E0D2
:10085000821B930B29853A854B855C8504C0569590
:100860004795379527958A95D2F76623B1F050952D
:100870004095309521953F4F4F4F5F4F0EC020E080
:1008800030E040E050E009C02FEF3FEF4FEF5FE76F
:1008900004C020E030E040E050E8B901CA012C96E5
:1008A000E2E00C94A10ADF92EF92FF920F931F9364
:1008B000FC01E480F58006811781D180808182303F
:1008C00048F480E090E0A0E1B0E0E82AF92A0A2BA1
:1008D0001B2BA5C0843009F49FC0823021F4EE2484
:1008E000FF24870105C0E114F1040105110519F485
:1008F000E0E0F0E096C0628173819FEF6238790793
:100900000CF05BC022E83FEF261B370B2A31310584
:100910002CF020E030E040E050E02AC0B801A70110
:10092000022E04C076956795579547950A94D2F79D
:1009300081E090E0A0E0B0E004C0880F991FAA1FFA
:10094000BB1F2A95D2F70197A109B1098E219F21DA
:10095000A023B1230097A105B10521F081E090E02B
:10096000A0E0B0E09A01AB01282B392B4A2B5B2B7E
:10097000DA01C9018F779070A070B0708034910552
:10098000A105B10539F427FF09C0205C3F4F4F4F47
:100990005F4F04C0215C3F4F4F4F5F4FE0E0F0E0FE
:1009A0002030A0E03A07A0E04A07A0E45A0710F080
:1009B000E1E0F0E079018A0127C06038710564F553
:1009C000FB01E158FF4FD801C7018F779070A070ED
:1009D000B07080349105A105B10539F4E7FE0DC072
:1009E00080E490E0A0E0B0E004C08FE390E0A0E0FD
:1009F000B0E0E80EF91E0A1F1B1F17FF05C0169571
:100A00000795F794E794319687E016950795F79444
:100A1000E7948A95D1F705C0EE24FF248701EFEF14
:100A2000F0E06E2F679566276795902F9F77D79494
:100A3000DD24D7948E2F8695492F462B582F5D297C
:100A4000B701CA011F910F91FF90EF90DF900895B9
:100A5000FC01DB01408151812281622F6F7770E0C0
:100A6000221F2227221F9381892F880F822B282F54
:100A700030E0991F9927991F11969C931197211582
:100A80003105A9F5411551056105710511F482E0A3
:100A900037C082E89FEF13969C938E9312979A012A
:100AA000AB0167E0220F331F441F551F6A95D1F732
:100AB00083E08C930DC0220F331F441F551F1296E5
:100AC0008D919C911397019713969C938E931297F7
:100AD000203080E0380780E0480780E4580758F36A
:100AE00014962D933D934D935C93179708952F3F44
:100AF000310579F4411551056105710519F484E05A
:100B00008C93089564FF03C081E08C9312C01C9203
:100B100010C02F57304013963C932E93129783E0CA
:100B20008C9387E0440F551F661F771F8A95D1F776
:100B3000706414964D935D936D937C93179708950D
:100B40001F93DC01FB019C91923008F447C0808127
:100B5000823008F443C0943051F411961C918430D3
:100B600099F58181682F70E0611B71093FC0843065
:100B700021F0923031F48230B9F18181882389F1FA
:100B80002DC011961C9111978230F1F081811817B8
:100B9000D9F412962D913C911397828193818217FB
:100BA000930794F028173907BCF014968D919D9106
:100BB0000D90BC91A02D2481358146815781281745
:100BC00039074A075B0718F4112341F00AC082175E
:100BD0009307A407B50740F4112319F061E070E012
:100BE00005C06FEF7FEF02C060E070E0CB011F91A6
:100BF00008958091590308951F93182F892F0E94FB
:100C00002409812F0E9424091F9108958F929F9299
:100C1000AF92BF92CF92DF92EF92FF920F931F930A
:100C2000CF93DF93C82ED62E79018A01CA01B9016C
:100C300025E93FEB46E551E40E94290220E030E03F
:100C400040E850E40E9429020E9453004B015C01DD
:100C5000ED2DF0E0EE0FFF1FEE0FFF1FEC5BFC4FE2
:100C6000E082F1820283138381E0D81619F0C0E09C
:100C7000D0E402C0C0E0D0E898B101E010E002C0CA
:100C8000000F111FCA94E2F7802F8095892388B93D
:100C9000FF24F3948F2D8A95F1F780915B03909157
:100CA0005C0390620E94FC05D501C40122E0B69568
:100CB000A795979587952A95D1F79F738C2B9D2B98
:100CC0000E94FC05C501AA27BB279F738C2B9D2B77
:100CD0000E94FC05FA94F1F788B1802B88B9DF9166
:100CE000CF911F910F91FF90EF90DF90CF90BF9029
:100CF000AF909F908F900895FF920F931F93282F8E
:100D000060935903662319F0613081F406C0809125
:100D10005B0390915C039B7F05C080915B03909186
:100D20005C03946090935C0380935B0398B101E053
:100D300010E002C0000F111F2A95E2F7802F809566
:100D4000892388B9FF24F3948F2D8A95F1F7809138
:100D50005B0390915C030E94FC05FA94F1F788B163
:100D6000802B88B91F910F91FF900895FF920F93E8
:100D70001F93282F60935803662319F0613081F484
:100D800006C080915B0390915C03977F05C08091C2
:100D90005B0390915C03986090935C0380935B038A
:100DA00098B101E010E002C0000F111F2A95E2F790
:100DB000802F8095892388B9FF24F3948F2D8A95FD
:100DC000F1F780915B0390915C030E94FC05FA941B
:100DD000F1F788B1802B88B91F910F91FF9008958A
:100DE000FF920F931F93CF93DF93613019F0C0E010
:100DF000D0EC02C0C0E0D0EEE62FF0E0EE0FFF1F17
:100E0000EE0FFF1FE45BFC4F20833183428353834B
:100E100098B101E010E002C0000F111F8A95E2F7BF
:100E2000802F8095892388B9FF24F3948F2D8A958C
:100E3000F1F7CA01B90120E030E040E054E40E943B
:100E4000290220E030E044E352E40E9423030E94A0
:100E50005300CE01862B972B0E94FC05FA94F1F7E4
:100E600088B1802B88B9DF91CF911F910F91FF90AE
:100E70000895FF920F931F93282F60935A036130B8
:100E800069F0613028F0623081F06330F1F414C011
:100E900080915B0390915C03806C13C080915B0335
:100EA00090915C038D7182600CC080915B03909186
:100EB0005C038571886205C080915B0390915C033F
:100EC0008D7190935C0380935B0398B101E010E017
:100ED00002C0000F111F2A95E2F7802F8095892309
:100EE00088B970E1F72E8F2D8A95F1F780915B0319
:100EF00090915C030E94FC058F2D8A95F1F788B1D3
:100F0000802B88B9FA94F1F71F910F91FF90089503
:100F1000FF920F931F9320915B0330915C0330622B
:100F200030935C0320935B039FEF97B998B101E086
:100F300010E002C0000F111F8A95E2F7902B98B9BC
:100F400083E08A95F1F74098FF24F3948F2D8A95DA
:100F5000F1F780E491E00E94FC0580915B039091A1
:100F60005C03806490935C0380935B03FA94F1F7D5
:100F700088B1082B08B980E060E020E030E040E074
:100F800050E00E94060680E061E020E030E040E0B2
:100F900050E00E94060680E060E020E030E040E0A3
:100FA00050E00E94F00680E061E020E030E040E0A8
:100FB00050E00E94F00680E060E00E94B60680E00B
:100FC00060E00E947C061F910F91FF900895282FEA
:100FD000662311F02C9A01C02C982D9884B18F6053
:100FE00084B995B1907F822F82958F70892B85B9B6
:100FF0002E9A00C02E982F70292B25B92E9A00C04A
:101000002E989F6095B90895882311F02C9A01C0FD
:101010002C982D9A84B1807F84B92E9A00C093B108
:101020002E9800C02E9A00C083B18F709295907F49
:101030002E98892B089580E00E94040887FDFBCF3D
:1010400000C080E00E94040808951F93182F0E949A
:101050001B08812F60E00E94E7071F9108951F93EE
:10106000182F0E941B08812F61E00E94E7071F9143
:101070000895662311F4805809C0613011F480543A
:1010800005C0623011F48C5601C08C520E942508B4
:1010900008950E941B0890E0089581E00E942508B1
:1010A000089582E00E94250808951F93182F0E943A
:1010B0001B08982F1A3099F4843110F480E40BC087
:1010C0008054843110F484E106C094519C3210F0B5
:1010D00080E001C084E580580E94250804C0812F6B
:1010E00061E00E94E7071F910895CF93DF93EC0121
:1010F00002C00E94550889918823D9F7DF91CF91CA
:101100000895CF93DF93EC0102C00E945508FE01C1
:10111000219684918823C9F7DF91CF9108951F9379
:10112000182F84B18F6784B980EA9FE00197F1F7A7
:10113000299A289A2E9A00C02E9880EE94E0019762
:10114000F1F72E9A00C02E9880E190E0FC013197D3
:10115000F1F72E9A00C02E98FC013197F1F72898EC
:101160002E9A00C02E980197F1F788E20E94250878
:1011700088E00E9425080E944D0886E00E9425080C
:10118000812F0E9425081F91089528EA31E6C901A0
:101190000197F1F7FCCFCF93DF938EE393E063EAFF
:1011A00072E00E94C609C4EDD0E3CE010197F1F7C9
:1011B0008EE393E00E940B0AF8CF0F931F938B01ED
:1011C0000E944D0880E091E00E947508C8010E94CD
:1011D00075088CE49DE129E130E0F9013197F1F7E0
:1011E0000197D9F71F910F91089584B1837C84B939
:1011F00084B18C6284B989E58CBD1DBC0895CF9300
:10120000DF93EC01DB0120E030E00CC0FE01E20FD7
:10121000F31F80818EBD0DB407FEFDCF8EB58D937B
:101220002F5F3F4F241790F3DF91CF910895FC017A
:1012300090E007C080818EBD0DB407FEFDCF9F5F9B
:1012400031969617B8F308958EBD0DB407FEFDCF05
:101250008EB508959EBD0DB407FEFDCF8EBD0DB4B5
:1012600007FEFDCF08956F927F928F929F92AF926B
:10127000BF92CF92DF92EF92FF920F931F93CF9383
:10128000DF937C01FC01C080D18000E0AA2489E1C9
:10129000682E712C49C0EA2DF0E0E217F3070CF03C
:1012A00062C04F01840E951EA394869CF001879C1A
:1012B000F00D969CF00D1124EC0DFD1D858181FD36
:1012C000EACFF7016381600F82810E943908F7013C
:1012D000B580BA94F601218130E08A2D90E0019723
:1012E0002817390711F48AE201C080E20E945508EC
:1012F000869CE001879CD00D969CD00D11242896E9
:10130000CC0DDD1D10E006C08991882331F00E94CC
:1013100055081F5F1B15C0F306C080E20E945508E8
:101320001F5F1B15D0F30F5FF70184810817D8F4F6
:10133000F6018081482F50E08281282F30E0241B65
:10134000350BA9CFF7016381600F82810E943908B4
:1013500010E004C080E20E9455081F5FF7018581FC
:101360001817C0F30F5FF7018481081758F3DF9156
:10137000CF911F910F91FF90EF90DF90CF90BF9092
:10138000AF909F908F907F906F900895FC01DB014C
:101390008081918114969C938E93139771836083BF
:1013A000CF010E9433090895DC01ED91FC91119762
:1013B00083819481009731F011969C938E93CD0197
:1013C0000E9433090895CF93DF93EC01A881B9817E
:1013D00011962C91119749E150E02223C9F0215038
:1013E000822F90E0849FF001859FF00D949FF00D77
:1013F0001124EA0FFB1F858181FDEFCF11962C93FD
:1014000011978C91281708F42C93CE010E94330970
:10141000DF91CF910895CF93DF93EC01A881B9813B
:1014200011962C91119712969C91129769E170E098
:101430002F5F2917F0F4422F50E0469FF001479F9D
:10144000F00D569FF00D1124EA0FFB1F858181FDE1
:10145000EFCF11962C9311973C818C9190E0830FE4
:10146000911D4817590714F0231B2C93CE010E949D
:101470003309DF91CF9108950F931F93CF93DF939B
:101480008C01FC01C081D181898190E029E130E0AB
:10149000829FA001839F500D929F500D1124DE0169
:1014A000A40FB51F15968C91159780FF08C05C9608
:1014B0006D917C915D97C8010E94C6090EC0CA015A
:1014C0000896C80FD91F1696ED91FC9117975C9658
:1014D0008D919C915D97BE010995C8010E943309C9
:1014E000DF91CF911F910F9108952F923F924F92CC
:1014F0005F926F927F928F929F92AF92BF92CF92A4
:10150000DF92EF92FF920F931F93CF93DF93CDB7AC
:10151000DEB7CA1BDB0B0FB6F894DEBF0FBECDBF24
:1015200009942A88398848885F846E847D848C84F5
:101530009B84AA84B984C884DF80EE80FD800C81FE
:101540001B81AA81B981CE0FD11D0FB6F894DEBFE1
:0C1550000FBECDBFED010895F894FFCF51
:10155C0053656C65637465643A20000000000000FC
:10156C0000000000000300000000004672657120BE
:10157C0028487A290000000000000000000000004C
:10158C000000C50846726571202853290000000030
:10159C000000000000000000000000000313010028
:1015AC00C5084F66667365740000000000000000FB
:1015BC00000000000000000000C508566D617800B6
:1015CC00000000000000000000000000000000000F
:1015DC000000C508566D696E000000000000000098
:1015EC000000000000000000000000C508567070EC
:1015FC0000000000000000000000000000000000DF
:10160C0000000000C50856726D7300000000000059
:10161C000000000000000000000000000000034A71
:10162C000100C50853696E65000000000000000051
:10163C000000000000000000000000C50852616DB1
:10164C00700000000000000000000000000000001E
:10165C0000000000C5085371756172650000000040
:10166C00000000000000000000000000000003CC9F
:10167C000100C5085068617365000000000000009F
:10168C000000000000000000000000C50844757454
:10169C0079204379636C65000000000000000000B5
:1016AC00000000000003CC0100C508416D706C699E
:1016BC00747564650000000000000000000000006C
:1016CC000000C50854696D650000000000000000B2
:1016DC000000000000000000000000C50841626F1F
:1016EC007574000000000000000000000000000005
:1016FC0000000000000500000100005374617475C7
:10170C007300000000000000000000000000005307
:10171C00020100004672657175656E637900000008
:10172C0000000000000000001301010000416D707A
:10173C006C69747564650000000000000000000016
:10174C00004A01010000576176652053686170659D
:10175C0000000000000000000000CC01010000535C
:10176C00796E630000000000000000000000000023
:10177C000000001C0200DD08736F6D657468696EF3
:10178C0067000000000000000000000000000000E6
:04179C000000041233
:00000001FF
