:100000000C9434000C9449000C9449000C94490061
:100010000C9449000C9449000C9449000C9449003C
:100020000C9449000C9449000C9449000C9449002C
:100030000C9449000C9449000C9449000C9449001C
:100040000C9449000C9449000C9449000C9449000C
:100050000C9449000C9449000C9449000C944900FC
:100060000C9449000C94490011241FBECFEFD8E036
:10007000DEBFCDBF13E0A0E0B1E0E6E4F5E002C0F2
:1000800005900D92A635B107D9F70E9429010C946D
:10009000A1020C940000282F662311F02C9A01C0B5
:1000A0002C982D9884B18F6084B995B1907F822F60
:1000B00082958F70892B85B92E9A00C02E982F704B
:1000C000292B25B92E9A00C02E989F6095B90895C6
:1000D000882311F02C9A01C02C982D9A84B1807F2E
:1000E00084B92E9A00C093B12E9800C02E9A00C0F9
:1000F00083B18F709295907F2E98892B089580E020
:100100000E94680087FDFBCF00C080E00E9468006D
:1001100008951F93182F0E947F00812F60E00E9496
:100120004B001F9108951F93182F0E947F00812F6D
:1001300061E00E944B001F910895662311F48058DE
:1001400009C0613011F4805405C0623011F48C563E
:1001500001C08C520E94890008950E947F0090E0A7
:10016000089581E00E948900089582E00E9489003C
:1001700008951F93182F0E947F00982F1A3099F42A
:10018000843110F480E40BC08054843110F484E195
:1001900006C094519C3210F080E001C084E5805884
:1001A0000E94890004C0812F61E00E944B001F91D2
:1001B0000895CF93DF93EC0102C00E94B9008991AA
:1001C0008823D9F7DF91CF910895CF93DF93EC0186
:1001D00002C00E94B900FE01219684918823C9F7CC
:1001E000DF91CF9108951F93182F84B18F6784B941
:1001F00080EA9FE00197F1F7299A289A2E9A00C089
:100200002E9880EE94E00197F1F72E9A00C02E9878
:1002100080E190E0FC013197F1F72E9A00C02E9812
:10022000FC013197F1F728982E9A00C02E9801977B
:10023000F1F788E20E94890088E00E9489000E940C
:10024000B10086E00E948900812F0E9489001F91E1
:100250000895CF93DF938FE493E064EB72E00E9404
:10026000F201C4EDD0E3CE010197F1F78FE493E002
:100270000E943702F8CFCF93DF93C8EAD1E6CE01D0
:100280000197F1F780E090E00E945F01F8CF0F93B3
:100290001F938B010E94B10080E091E00E94D90081
:1002A000C8010E94D9008CE49DE129E130E0F90108
:1002B0003197F1F70197D9F71F910F9108956F9238
:1002C0007F928F929F92AF92BF92CF92DF92EF92E6
:1002D000FF920F931F93CF93DF937C01FC01C080AB
:1002E000D18000E0AA2489E1682E712C49C0EA2D52
:1002F000F0E0E217F3070CF062C04F01840E951E88
:10030000A394869CF001879CF00D969CF00D11241F
:10031000EC0DFD1D858181FDEACFF7016381600F42
:1003200082810E949D00F701B580BA94F601218177
:1003300030E08A2D90E001972817390711F48AE2FE
:1003400001C080E20E94B900869CE001879CD00D2C
:10035000969CD00D11242896CC0DDD1D10E006C012
:100360008991882331F00E94B9001F5F1B15C0F3EB
:1003700006C080E20E94B9001F5F1B15D0F30F5F1B
:10038000F70184810817D8F4F6018081482F50E0E6
:100390008281282F30E0241B350BA9CFF701638120
:1003A000600F82810E949D0010E004C080E20E94E4
:1003B000B9001F5FF70185811817C0F30F5FF701C0
:1003C0008481081758F3DF91CF911F910F91FF900F
:1003D000EF90DF90CF90BF90AF909F908F907F90E5
:1003E0006F900895FC01DB018081918114969C93AC
:1003F0008E93139771836083CF010E945F010895EC
:10040000DC01ED91FC91119783819481009731F08B
:1004100011969C938E93CD010E945F010895CF9316
:10042000DF93EC01A881B98111962C91119749E1D4
:1004300050E02223C9F02150822F90E0849FF001E8
:10044000859FF00D949FF00D1124EA0FFB1F85810D
:1004500081FDEFCF11962C9311978C91281708F4FA
:100460002C93CE010E945F01DF91CF910895CF932D
:10047000DF93EC01A881B98111962C911197129606
:100480009C91129769E170E02F5F2917F0F4422FD9
:1004900050E0469FF001479FF00D569FF00D11244C
:1004A000EA0FFB1F858181FDEFCF11962C931197E9
:1004B0003C818C9190E0830F911D4817590714F0EF
:1004C000231B2C93CE010E945F01DF91CF910895F1
:1004D0000F931F93CF93DF938C01FC01C081D181D7
:1004E000898190E029E130E0829FA001839F500D37
:1004F000929F500D1124DE01A40FB51F15968C910B
:10050000159780FF08C05C966D917C915D97C8013E
:100510000E94F2010EC0CA010896C80FD91F169694
:10052000ED91FC9117975C968D919C915D97BE0122
:100530000995C8010E945F01DF91CF911F910F9132
:060540000895F894FFCFBE
:1005460053656C65637465643A200000000300001F
:10055600000000467265712028487A2900000000D4
:10056600000000000000000000003B0146726571BB
:1005760020285329000000000000000000000000B1
:1005860000000000030B010047014F6666736574A7
:100596000000000000000000000000000000000055
:1005A600004701566D617800000000000000000061
:1005B600000000000000000000004701566D696E53
:1005C6000000000000000000000000000000000025
:1005D6000000004701567070000000000000000097
:1005E60000000000000000000000000047015672F5
:1005F6006D73000000000000000000000000000015
:1006060000000000000003420100470173320000B1
:1006160000000000000000000000000000000000D4
:1006260000000047017333000000000000000000D6
:1006360000000000000000000000000047017334C5
:1006460000000000000000000000000000000000A4
:1006560000000000000003C40100470173320000DF
:100666000000000000000000000000000000000084
:100676000000004701733300000000000000000086
:100686000000000000000000000000004701733475
:100696000000000000000000000000000000000054
:1006A60000000000000003C401004701733200008F
:1006B6000000000000000000000000000000000034
:1006C6000000004701733300000000000000000036
:1006D6000000000000000000000000004701733425
:1006E6000000000000000000000000000000000004
:1006F6000000000000000500000100005374617452
:1007060075730000000000000000000000000000FB
:1007160064020100004672657175656E63790000BA
:100726000000000000000000000B01010000416D08
:10073600706C6974756465000000000000000000BC
:100746000000420101000057617665205368617020
:100756006500000000000000000000C40101000068
:1007660053796E63000000000000000000000000E6
:10077600000000001402004701736F6D657468691C
:100786006E6700000000000000000000000000008E
:0607960000000004120047
:00000001FF
